:100000000C9463000C948B000C948B000C948B006C
:100010000C948B000C948B000C948B000C94DD00E2
:100020000C948B000C948B000C948B000C948B0024
:100030000C948B000C948B000C948B000C948B0014
:100040000C9427060C948B000C9409030C94570312
:100050000C948B000C948B000C948B000C948B00F4
:100060000C948B000C948B000000000024002700EF
:100070002A0000000000250028002B0000000000DE
:1000800023002600290004040404040404040202DA
:100090000202020203030303030301020408102007
:1000A0004080010204081020010204081020000012
:1000B0000007000201000003040600000000000029
:1000C0000000EE01C30411241FBECFEFD8E0DEBF55
:1000D000CDBF11E0A0E0B1E0E2E6FEE002C0059095
:1000E0000D92A631B107D9F712E0A6E1B1E001C047
:1000F0001D92AC32B107E1F710E0C6ECD0E004C0CD
:100100002297FE010E942B07C23CD107C9F70E942B
:1001100018060C942F070C940000CF93DF93EC018A
:10012000862F90E0FC01E656FF4FE491EC83A42F6C
:10013000B0E0FD01E656FF4FE491ED838A579F4FF3
:10014000FC01449150E0440F551FFA01EE58FF4F57
:10015000859194919F838E83AA57BF4FFD0184910F
:10016000E82FF0E0EE0FFF1FE458FF4F85919491C8
:100170009B878A87FA01E859FF4F85919491998767
:100180008887F1E0253F3F0714F024EF31E089E351
:1001900090E0AC01249FC001259F900D349F900DED
:1001A00011244C969D878C87DF91CF910895E0E7CD
:1001B000F0E080818D7F808308951F920F920FB6AB
:1001C0000F9211242F933F934F935F936F937F93DD
:1001D0008F939F93AF93BF93EF93FF93E09116019B
:1001E000F0911701309709F00995FF91EF91BF91B8
:1001F000AF919F918F917F916F915F914F913F91BF
:100200002F910F900FBE0F901F901895EF92FF92B5
:100210000F931F93CF93DF93EC010E947D062E85F1
:100220003F8548895989261737074807590730F409
:10023000809170008D7F809370000AC0EA85FB85F5
:10024000208130E08D8190E028233923232B11F089
:1002500080E020C0809170008D7F809370000E94AC
:100260007D062C853D8540E050E0EE84FF840889C2
:1002700019892E193F09400B510B2D503040404039
:100280005040260F371F481F591F288339834A8340
:100290005B8381E0DF91CF911F910F91FF90EF90F1
:1002A0000895CF93DF93EC01E885F98580819C81E7
:1002B000892B8083EE81FF8190818C8180958923B9
:1002C000808384E090E00E94A306EE81FF8180811C
:1002D0009C81892B80838AE090E00E94A306EE81B6
:1002E000FF8190818C81809589238083E885F985C1
:1002F00090818C818095892380830E947D06605B3C
:10030000794B8F4F9F4F6E877F87888B998BEA85BC
:10031000FB85208130E08D8190E028233923232B39
:10032000C9F00E947D062E853F8548895989261788
:1003300037074807590770F0EACF0E947D062E85DF
:100340003F8548895989261737074807590710F408
:1003500080E019C0EA85FB85208130E08D8190E046
:1003600028233923232B49F30E947D062C853D85C4
:1003700040E050E0260F371F481F591F2E873F8748
:10038000488B598B81E0DF91CF910895CF93DF9314
:10039000EB010E9451018823F1F0809170008D7F64
:1003A000809370008091B6008F7D8093B60082E0CC
:1003B0008093B00084E08093B1001092B200D0939B
:1003C0001701C093160185E08093B30080917000FF
:1003D000826080937000DF91CF9108950F931F93F7
:1003E00001E311E0C80169E049E028EC30E00E9437
:1003F0008D00C80142966AE04AE028EC30E00E9495
:100400008D00C80184966BE04BE028EC30E00E9440
:100410008D00C801C6966CE04CE028EC30E00E94EC
:100420008D001F910F9108951F93CF93DF93C8E222
:10043000D1E010E081E092E0612F4AE050E00E94BC
:10044000030681E092E060E071E00E941506699188
:10045000799181E092E04AE050E00E94F20581E06B
:1004600092E062E071E00E9415061F5F143011F700
:1004700081E092E00E944305DF91CF911F910895A2
:10048000CF93DF938091300122E1829FC00111243C
:100490008F5C9E4F0E9406018823F1F0E0913001AD
:1004A000CE2FD0E0CC0FDD1FFE0183E0EE0FFF1F4B
:1004B0008A95E1F7EC0FFD1FEF5CFE4F60817181C3
:1004C0008281938129E330E040E050E00E940707F9
:1004D000C85DDE4F39832883DF91CF910895BF92A5
:1004E000CF92DF92EF92FF920F931F93CF93DF9300
:1004F00008E111E068E2E62E61E0F62EC0E0D0E00F
:10050000DC2E0E946F06CC2EBD2EF8012081318199
:1005100042815381621773078407950748F12C576E
:100520003F4F4F4F5F4F2083318342835383CC2310
:1005300031F480913001833011F40E9414020E9442
:10054000D700D0923001F701118210828C2D9B2DA3
:10055000880F991F9C0143E0220F331F4A95E1F752
:10056000820F931F8F5C9E4F60E472E00E94C60171
:1005700021960C5F1F4F82E090E0E80EF91EC43018
:10058000D10509F0BDCFDF91CF911F910F91FF9061
:10059000EF90DF90CF90BF90089581E092E040E02F
:1005A00052EC61E070E00E9492030E946F06655B6E
:1005B0007F4F8F4F9F4F6093180170931901809365
:1005C0001A0190931B016F5D7F4F8F4F9F4F609378
:1005D0001C0170931D0180931E0190931F016F5D9C
:1005E0007F4F8F4F9F4F6093200170932101809325
:1005F0002201909323016F5D7F4F8F4F9F4F609338
:10060000240170932501809326019093270108957A
:1006100008951F920F920FB60F9211242F933F93BC
:100620004F938F939F93EF93FF938091C00082FD30
:100630001DC04091C6002091B9013091BA012F5FD1
:100640003F4F2F7330708091BB019091BC012817F0
:10065000390771F0E091B901F091BA01E758FE4F06
:1006600040833093BA012093B90102C08091C60043
:10067000FF91EF919F918F914F913F912F910F900B
:100680000FBE0F901F901895E0910D02F0910E0291
:10069000E05CFF4F8191919120813181821B930B0E
:1006A0008F739070892B11F00E94080308951F9298
:1006B0000F920FB60F9211242F933F938F939F9316
:1006C000EF93FF932091FD013091FE018091FF0196
:1006D000909100022817390731F48091C1008F7D75
:1006E0008093C10014C0E091FF01F0910002E35437
:1006F000FE4F20818091FF019091000201968F733F
:100700009070909300028093FF012093C600FF91A8
:10071000EF919F918F913F912F910F900FBE0F906E
:100720001F901895AF92BF92DF92EF92FF920F93B6
:100730001F93CF93DF93EC017A018B01DD244030CE
:1007400081EE580780E0680780E0780711F0DD242B
:10075000D39491E0A92EB12CEC89FD89DD2069F0BC
:10076000C50108A002C0880F991F0A94E2F7808390
:1007700060E079E08DE390E005C0108260E874E805
:100780008EE190E0A80197010E94070721503040B8
:1007900040405040569547953795279580E1203049
:1007A000380720F0DD2011F0DD24D6CFE889F98963
:1007B0003083EA89FB89208319A2EE89FF89408171
:1007C00021E030E0C9010C8C02C0880F991F0A9407
:1007D000E2F7482B4083EE89FF894081C9010D8CE7
:1007E00002C0880F991F0A94E2F7482B4083EE89D4
:1007F000FF894081C9010E8C02C0880F991F0A949D
:10080000E2F7482B4083EE89FF8980810F8C02C07C
:10081000220F331F0A94E2F7209528232083DF91CB
:10082000CF911F910F91FF90EF90DF90BF90AF900D
:100830000895DC011C96ED91FC911D97E05CFF4F43
:100840002191319180819181281B390B2F73307058
:10085000C9010895DC011C96ED91FC911D97E05CA7
:10086000FF4F20813181E054F040DF01AE5BBF4F8C
:100870008D919C9111972817390719F42FEF3FEFAD
:1008800007C08D919C91E80FF91F8081282F30E0DF
:10089000C9010895DC011C96ED91FC911D97E05C67
:1008A000FF4F20813181E054F040DF01AE5BBF4F4C
:1008B0008D919C9111972817390719F42FEF3FEF6D
:1008C00010C08D919C911197E80FF91F20818D9197
:1008D0009C91119701968F73907011969C938E93B3
:1008E00030E0C9010895DC0191968C91919788239D
:1008F00039F05496ED91FC915597808186FFF9CFA0
:1009000091961C920895CF93DF93EC01EE85FF85BD
:10091000E05CFF4F20813181E054F0402F5F3F4F7A
:100920002F733070DF01AE5BBF4F8D919C9111979B
:1009300028173907D1F3E05CFF4F80819181E054A3
:10094000F040E80FF91F6083EE85FF85E05CFF4F04
:1009500031832083EE89FF89208181E090E00F8C34
:1009600002C0880F991F0A94E2F7282B208381E0A8
:1009700089A3EC89FD8980818064808381E090E097
:10098000DF91CF910895109204021092030288EE35
:1009900093E0A0E0B0E08093050290930602A0935C
:1009A0000702B09308028AE091E0909302028093DC
:1009B000010289E791E090930E0280930D028DEB86
:1009C00091E09093100280930F0285EC90E0909359
:1009D00012028093110284EC90E0909314028093B1
:1009E000130280EC90E0909316028093150281EC44
:1009F00090E0909318028093170282EC90E090931D
:100A00001A028093190286EC90E090931C02809366
:100A10001B0284E080931D0283E080931E0287E026
:100A200080931F0285E08093200281E08093210261
:100A30000895CF92DF92EF92FF920F931F93CF937F
:100A4000DF937C016B018A01C0E0D0E00FC0D601CA
:100A50006D916D01D701ED91FC910190F081E02D38
:100A6000C7010995C80FD91F015010400115110584
:100A700071F7CE01DF91CF911F910F91FF90EF9011
:100A8000DF90CF900895EF92FF920F931F938C0108
:100A9000DC01ED91FC910190F081E02D6DE0099574
:100AA0007C01D801ED91FC910190F081E02DC8010D
:100AB0006AE009959C012E0D3F1DC9011F910F9100
:100AC000FF90EF900895CF93DF93EC0161157105CE
:100AD00019F420E030E00FC0DB010D900020E9F7B1
:100AE0001197A61BB70BE881F9810280F381E02DF5
:100AF000AD0109959C01C901DF91CF9108954F92F5
:100B00005F927F928F929F92AF92BF92CF92DF922D
:100B1000EF92FF920F931F93DF93CF93CDB7DEB782
:100B2000A1970FB6F894DEBF0FBECDBF2C01742E77
:100B3000CB01223008F42AE019A231E2C32ED12CD5
:100B4000CC0EDD1E822E9924AA24BB24672D752F7E
:100B5000A50194010E94070779018A01C801B70124
:100B6000A50194010E94E806472D461B0894C10880
:100B7000D1084A3014F4405D01C0495CF60140835D
:100B8000E114F1040105110521F07E2C5F2DC8014F
:100B9000DDCFC201B6010E946305A1960FB6F8949D
:100BA000DEBF0FBECDBFCF91DF911F910F91FF90A0
:100BB000EF90DF90CF90BF90AF909F908F907F90FD
:100BC0005F904F900895DC012115310541F4ED91BE
:100BD000FC910190F081E02D642F099508950E9409
:100BE0007F050895EF92FF920F931F939A017B0167
:100BF00000E010E0B801A7010E94E3051F910F91EA
:100C0000FF90EF900895EF92FF920F931F939A0138
:100C1000E62EFF2400E010E0B801A7010E94E305E2
:100C20001F910F91FF90EF9008950E946305089522
:100C3000CF93DF930E94AD060E94CD02C4E4D3E0BF
:100C40000E946F022097E1F30E944403F9CF1F92A4
:100C50000F920FB60F9211242F933F938F939F9370
:100C6000AF93BF938091270290912802A09129020F
:100C7000B0912A0230912B020196A11DB11D232FA4
:100C80002D5F2D3720F02D570196A11DB11D20930A
:100C90002B028093270290932802A0932902B093FD
:100CA0002A028091230290912402A0912502B09102
:100CB00026020196A11DB11D809323029093240268
:100CC000A0932502B0932602BF91AF919F918F917F
:100CD0003F912F910F900FBE0F901F9018958FB7D7
:100CE000F8942091270230912802409129025091D6
:100CF0002A028FBFB901CA0108959FB7F8942091C5
:100D0000230230912402409125025091260286B59B
:100D1000A89B06C08F3F21F02F5F3F4F4F4F5F4F83
:100D20009FBF542F432F322F2227280F311D411DE3
:100D3000511D82E0220F331F441F551F8A95D1F7A2
:100D4000B901CA010895019739F0880F991F880FDA
:100D5000991F02970197F1F70895789484B58260FE
:100D600084BD84B5816084BD85B5826085BD85B54F
:100D7000816085BDEEE6F0E0808181608083E1E8FE
:100D8000F0E0108280818260808380818160808336
:100D9000E0E8F0E0808181608083E1EBF0E0808139
:100DA00084608083E0EBF0E0808181608083EAE70B
:100DB000F0E0808184608083808182608083808194
:100DC000816080838081806880831092C100089553
:100DD000629FD001739FF001829FE00DF11D649F1F
:100DE000E00DF11D929FF00D839FF00D749FF00DAB
:100DF000659FF00D9927729FB00DE11DF91F639F4C
:100E0000B00DE11DF91FBD01CF0111240895A1E22C
:100E10001A2EAA1BBB1BFD010DC0AA1FBB1FEE1F74
:100E2000FF1FA217B307E407F50720F0A21BB30BBF
:100E3000E40BF50B661F771F881F991F1A9469F73B
:100E400060957095809590959B01AC01BD01CF0197
:100E50000895EE0FFF1F0590F491E02D0994F8948A
:020E6000FFCFC2
:100E62003D00636D20000000000083041905190491
:060E72004A042A04730487
:00000001FF
