:100000000C9463000C948B000C948B000C948B006C
:100010000C948B000C948B000C948B000C94D700E8
:100020000C948B000C948B000C948B000C948B0024
:100030000C948B000C948B000C948B000C948B0014
:100040000C940E050C948B000C94EF010C943D0263
:100050000C948B000C948B000C948B000C948B00F4
:100060000C948B000C948B000000000024002700EF
:100070002A0000000000250028002B0000000000DE
:1000800023002600290004040404040404040202DA
:100090000202020203030303030301020408102007
:1000A0004080010204081020010204081020000012
:1000B0000007000201000003040600000000000029
:1000C0000000A501A90311241FBECFEFD8E0DEBFB9
:1000D000CDBF11E0A0E0B1E0EEEEFCE002C0059083
:1000E0000D92AC31B107D9F711E0ACE1B1E001C03C
:1000F0001D92A53FB107E1F710E0C6ECD0E004C0C7
:100100002297FE010E947106C23CD107C9F70E94E6
:10011000FF040C9475060C940000CF93DF93EC0160
:10012000862F90E0FC01E656FF4FE491EC83A42F6C
:10013000B0E0FD01E656FF4FE491ED838A579F4FF3
:10014000FC01449150E0440F551FFA01EE58FF4F57
:10015000859194919F838E83AA57BF4FFD0184910F
:10016000E82FF0E0EE0FFF1FE458FF4F85919491C8
:100170009B878A87FA01E859FF4F85919491998767
:100180008887F1E0253F3F0714F024EF31E089E351
:1001900090E0AC01249FC001259F900D349F900DED
:1001A00011244C969D878C87DF91CF9108951F92E3
:1001B0000F920FB60F9211242F933F934F935F939B
:1001C0006F937F938F939F93AF93BF93EF93FF931F
:1001D000E0911C01F0911D01309709F00995FF9104
:1001E000EF91BF91AF919F918F917F916F915F91AF
:1001F0004F913F912F910F900FBE0F901F90189528
:10020000CF93DF93EC01E885F98580819C81892B70
:100210008083EE81FF8190818C818095892380830A
:1002200084E090E00E94D505EE81FF8180819C8171
:10023000892B80838AE090E00E94D505EE81FF81C2
:1002400090818C81809589238083E885F9859081D0
:100250008C818095892380830E945605605B794B51
:100260008F4F9F4F6E877F87888B998BEA85FB85A1
:10027000208130E08D8190E028233923232BC9F0A1
:100280000E9456052E853F854889598926173707CC
:100290004807590770F0EACF0E9456052E853F8522
:1002A00048895989261737074807590710F480E00D
:1002B00019C0EA85FB85208130E08D8190E02823FC
:1002C0003923232B49F30E9456052C853D8540E0B8
:1002D00050E0260F371F481F591F2E873F87488B36
:1002E000598B81E0DF91CF910895CF93DF93EC019B
:1002F0000E940001882361F422C00E9456052E85C9
:100300003F85488959892617370748075907B8F0A4
:10031000EA85FB85208130E08D8190E02823392318
:10032000232B59F70E9456054C855D85455050405A
:100330002E853F85421B530B460F571F02C040E0DE
:1003400050E0CA01DF91CF9108958EE191E06CE019
:100350004BE028EC30E00E948D0080E391E06AE001
:1003600048E028EC30E00E948D000895EF92FF9263
:100370000F931F9364E670E080E090E00E947C059C
:1003800080E391E00E9475017C010AEC11E0C80154
:1003900060E071E00E94E904C70169E370E00E9437
:1003A0003906C8014AE050E00E94D804C80168E05C
:1003B00071E00E94E904C8016BE071E00E94EC0466
:1003C0001F910F91FF90EF9008958AEC91E040E02B
:1003D00052EC61E070E00E947802089508951F9247
:1003E0000F920FB60F9211242F933F934F938F9339
:1003F0009F93EF93FF938091C00082FD1DC04091B9
:10040000C60020918201309183012F5F3F4F2F73EF
:10041000307080918401909185012817390771F01F
:10042000E0918201F0918301EE5BFE4F40833093B7
:1004300083012093820102C08091C600FF91EF9159
:100440009F918F914F913F912F910F900FBE0F90E1
:100450001F901895E091D601F091D701E05CFF4F15
:100460008191919120813181821B930B8F739070C8
:10047000892B11F00E94EE0108951F920F920FB682
:100480000F9211242F933F938F939F93EF93FF939A
:100490002091C6013091C7018091C8019091C90196
:1004A0002817390731F48091C1008F7D8093C100F6
:1004B00014C0E091C801F091C901EA57FE4F2081B4
:1004C0008091C8019091C90101968F7390709093AB
:1004D000C9018093C8012093C600FF91EF919F91BD
:1004E0008F913F912F910F900FBE0F901F901895F5
:1004F000AF92BF92DF92EF92FF920F931F93CF9331
:10050000DF93EC017A018B01DD24403081EE580746
:1005100080E0680780E0780711F0DD24D39491E053
:10052000A92EB12CEC89FD89DD2069F0C50108A058
:1005300002C0880F991F0A94E2F7808360E079E097
:100540008DE390E005C0108260E874E88EE190E0F1
:10055000A80197010E944D06215030404040504074
:10056000569547953795279580E12030380720F03C
:10057000DD2011F0DD24D6CFE889F9893083EA89BE
:10058000FB89208319A2EE89FF89408121E030E0B8
:10059000C9010C8C02C0880F991F0A94E2F7482BFE
:1005A0004083EE89FF894081C9010D8C02C0880F0C
:1005B000991F0A94E2F7482B4083EE89FF89408116
:1005C000C9010E8C02C0880F991F0A94E2F7482BCC
:1005D0004083EE89FF8980810F8C02C0220F331F78
:1005E0000A94E2F7209528232083DF91CF911F9171
:1005F0000F91FF90EF90DF90BF90AF900895DC01D6
:100600001C96ED91FC911D97E05CFF4F219131917B
:1006100080819181281B390B2F733070C901089597
:10062000DC011C96ED91FC911D97E05CFF4F208151
:100630003181E054F040DF01AE5BBF4F8D919C9162
:1006400011972817390719F42FEF3FEF07C08D9145
:100650009C91E80FF91F8081282F30E0C90108958F
:10066000DC011C96ED91FC911D97E05CFF4F208111
:100670003181E054F040DF01AE5BBF4F8D919C9122
:1006800011972817390719F42FEF3FEF10C08D91FC
:100690009C911197E80FF91F20818D919C911197E2
:1006A00001968F73907011969C938E9330E0C901E0
:1006B0000895DC0191968C919197882339F0549696
:1006C000ED91FC915597808186FFF9CF91961C9210
:1006D0000895CF93DF93EC01EE85FF85E05CFF4F3B
:1006E00020813181E054F0402F5F3F4F2F733070F5
:1006F000DF01AE5BBF4F8D919C9111972817390791
:10070000D1F3E05CFF4F80819181E054F040E80F2D
:10071000F91F6083EE85FF85E05CFF4F3183208306
:10072000EE89FF89208181E090E00F8C02C0880F64
:10073000991F0A94E2F7282B208381E089A3EC8992
:10074000FD8980818064808381E090E0DF91CF919A
:1007500008951092CD011092CC0188EE93E0A0E0B4
:10076000B0E08093CE019093CF01A093D001B093DD
:10077000D10180E191E09093CB018093CA0182E4A2
:1007800091E09093D7018093D60186E891E0909311
:10079000D9018093D80185EC90E09093DB018093A0
:1007A000DA0184EC90E09093DD018093DC0180EC31
:1007B00090E09093DF018093DE0181EC90E09093D4
:1007C000E1018093E00182EC90E09093E30180935B
:1007D000E20186EC90E09093E5018093E40184E0EF
:1007E0008093E60183E08093E70187E08093E8014E
:1007F00085E08093E90181E08093EA010895CF923A
:10080000DF92EF92FF920F931F93CF93DF937C01C0
:100810006B018A01C0E0D0E00FC0D6016D916D017F
:10082000D701ED91FC910190F081E02DC701099570
:10083000C80FD91F015010400115110571F7CE01E5
:10084000DF91CF911F910F91FF90EF90DF90CF90AC
:100850000895EF92FF920F931F938C01DC01ED91AD
:10086000FC910190F081E02D6DE009957C01D801AB
:10087000ED91FC910190F081E02DC8016AE00995AD
:100880009C012E0D3F1DC9011F910F91FF90EF900C
:100890000895CF93DF93EC016115710519F420E001
:1008A00030E00FC0DB010D900020E9F71197A61B87
:1008B000B70BE881F9810280F381E02DAD01099544
:1008C0009C01C901DF91CF9108954F925F927F9271
:1008D0008F929F92AF92BF92CF92DF92EF92FF9250
:1008E0000F931F93DF93CF93CDB7DEB7A1970FB6CA
:1008F000F894DEBF0FBECDBF2C01742ECB01223089
:1009000008F42AE019A231E2C32ED12CCC0EDD1E50
:10091000822E9924AA24BB24672D752FA50194014A
:100920000E944D0679018A01C801B701A501940111
:100930000E941A06472D461B0894C108D1084A3068
:1009400014F4405D01C0495CF6014083E114F104F8
:100950000105110521F07E2C5F2DC801DDCFC201FC
:10096000B6010E944904A1960FB6F894DEBF0FBEEF
:10097000CDBFCF91DF911F910F91FF90EF90DF904E
:10098000CF90BF90AF909F908F907F905F904F904F
:100990000895DC012115310541F4ED91FC910190A0
:1009A000F081E02D642F099508950E946504089553
:1009B000EF92FF920F931F939A017B0100E010E0EA
:1009C000B801A7010E94C9041F910F91FF90EF90F9
:1009D00008950E9449040895EF92FF920F931F9388
:1009E0007C010E9449048C01C7010E942904080F60
:1009F000191FC8011F910F91FF90EF900895CF9399
:100A0000DF930E94DF050E94E501CAE2D2E00E9466
:100A1000B6012097E1F30E942A02F9CF1F920F92AC
:100A20000FB60F9211242F933F938F939F93AF9301
:100A3000BF938091F0019091F101A091F201B091EA
:100A4000F3013091F4010196A11DB11D232F2D5FFB
:100A50002D3720F02D570196A11DB11D2093F401D3
:100A60008093F0019093F101A093F201B093F30110
:100A70008091EC019091ED01A091EE01B091EF0118
:100A80000196A11DB11D8093EC019093ED01A093FF
:100A9000EE01B093EF01BF91AF919F918F913F9184
:100AA0002F910F900FBE0F901F9018959FB7F8943D
:100AB0002091EC013091ED014091EE015091EF0158
:100AC00086B5A89B06C08F3F21F02F5F3F4F4F4F49
:100AD0005F4F9FBF542F432F322F2227280F311DE6
:100AE000411D511D82E0220F331F441F551F8A955F
:100AF000D1F7B901CA0108959B01AC017FB7F89401
:100B00008091EC019091ED01A091EE01B091EF0187
:100B100066B5A89B05C06F3F19F00196A11DB11DD8
:100B20007FBFBA2FA92F982F8827860F911DA11D4F
:100B3000B11D62E0880F991FAA1FBB1F6A95D1F7EC
:100B4000BC012DC0FFB7F8948091EC019091ED01AC
:100B5000A091EE01B091EF01E6B5A89B05C0EF3F73
:100B600019F00196A11DB11DFFBFBA2FA92F982F13
:100B700088278E0F911DA11DB11DE2E0880F991FDE
:100B8000AA1FBB1FEA95D1F7861B970B885E93407F
:100B9000C8F2215030404040504068517C4F2115F0
:100BA00031054105510571F60895019739F0880F17
:100BB000991F880F991F02970197F1F7089578946C
:100BC00084B5826084BD84B5816084BD85B5826052
:100BD00085BD85B5816085BDEEE6F0E080818160F0
:100BE0008083E1E8F0E010828081826080838081F0
:100BF00081608083E0E8F0E0808181608083E1EBC8
:100C0000F0E0808184608083E0EBF0E080818160AF
:100C10008083EAE7F0E08081846080838081826065
:100C2000808380818160808380818068808310924E
:100C3000C1000895629FD001739FF001829FE00D73
:100C4000F11D649FE00DF11D929FF00D839FF00D4B
:100C5000749FF00D659FF00D9927729FB00DE11DF7
:100C6000F91F639FB00DE11DF91FBD01CF011124D4
:100C70000895AA1BBB1B51E107C0AA1FBB1FA617E3
:100C8000B70710F0A61BB70B881F991F5A95A9F735
:100C900080959095BC01CD010895A1E21A2EAA1B62
:100CA000BB1BFD010DC0AA1FBB1FEE1FFF1FA2171C
:100CB000B307E407F50720F0A21BB30BE40BF50B19
:100CC000661F771F881F991F1A9469F760957095A2
:100CD000809590959B01AC01BD01CF010895EE0F69
:0E0CE000FF1F0590F491E02D0994F894FFCFCA
:100CEE0050696E67323A2000636D0000000000000C
:0C0CFE006903FF03FF02300310035903D9
:00000001FF
