:100000000C9463000C948B000C948B000C948B006C
:100010000C948B000C948B000C948B000C94DD00E2
:100020000C948B000C948B000C948B000C948B0024
:100030000C948B000C948B000C948B000C948B0014
:100040000C945A0B0C948B000C94AA070C94F80790
:100050000C948B000C948B000C948B000C948B00F4
:100060000C94CD060C948B000000000024002700A7
:100070002A0000000000250028002B0000000000DE
:1000800023002600290004040404040404040202DA
:100090000202020203030303030301020408102007
:1000A0004080010204081020010204081020000012
:1000B0000007000201000003040600000000000029
:1000C0000000F804640911241FBECFEFD8E0DEBFA2
:1000D000CDBF12E0A0E0B1E0E8EDFAE102C005908A
:1000E0000D92A638B107D9F714E0A6E8B2E001C036
:1000F0001D92A833B107E1F710E0C6ECD0E004C0D0
:100100002297FE010E94660DC23CD107C9F70E94EA
:100110004B0B0C946A0D0C940000CF93DF93EC0111
:10012000862F90E0FC01E656FF4FE491EC83A42F6C
:10013000B0E0FD01E656FF4FE491ED838A579F4FF3
:10014000FC01449150E0440F551FFA01EE58FF4F57
:10015000859194919F838E83AA57BF4FFD0184910F
:10016000E82FF0E0EE0FFF1FE458FF4F85919491C8
:100170009B878A87FA01E859FF4F85919491998767
:100180008887F1E0253F3F0714F024EF31E089E351
:1001900090E0AC01249FC001259F900D349F900DED
:1001A00011244C969D878C87DF91CF910895E0E7CD
:1001B000F0E080818D7F808308951F920F920FB6AB
:1001C0000F9211242F933F934F935F936F937F93DD
:1001D0008F939F93AF93BF93EF93FF93E09186022A
:1001E000F0918702309709F00995FF91EF91BF9147
:1001F000AF919F918F917F916F915F914F913F91BF
:100200002F910F900FBE0F901F901895EF92FF92B5
:100210000F931F93CF93DF93EC010E94B00B2E85B9
:100220003F8548895989261737074807590730F409
:10023000809170008D7F809370000AC0EA85FB85F5
:10024000208130E08D8190E028233923232B11F089
:1002500080E020C0809170008D7F809370000E94AC
:10026000B00B2C853D8540E050E0EE84FF8408898A
:1002700019892E193F09400B510B2D503040404039
:100280005040260F371F481F591F288339834A8340
:100290005B8381E0DF91CF911F910F91FF90EF90F1
:1002A0000895CF93DF93EC01E885F98580819C81E7
:1002B000892B8083EE81FF8190818C8180958923B9
:1002C000808384E090E00E94D60BEE81FF818081E4
:1002D0009C81892B80838AE090E00E94D60BEE817E
:1002E000FF8190818C81809589238083E885F985C1
:1002F00090818C818095892380830E94B00B605B04
:10030000794B8F4F9F4F6E877F87888B998BEA85BC
:10031000FB85208130E08D8190E028233923232B39
:10032000C9F00E94B00B2E853F8548895989261750
:1003300037074807590770F0EACF0E94B00B2E85A7
:100340003F8548895989261737074807590710F408
:1003500080E019C0EA85FB85208130E08D8190E046
:1003600028233923232B49F30E94B00B2C853D858C
:1003700040E050E0260F371F481F591F2E873F8748
:10038000488B598B81E0DF91CF910895CF93DF9314
:10039000EB010E9451018823F1F0809170008D7F64
:1003A000809370008091B6008F7D8093B60082E0CC
:1003B0008093B00084E08093B1001092B200D0939B
:1003C0008702C093860285E08093B300809170001D
:1003D000826080937000DF91CF91089510928C021B
:1003E00010928D0210928E0210928F021092900243
:1003F000109291021092920210929302109288022F
:100400001092890210928A0210928B020895EF9244
:10041000FF920F931F93CF93DF930E94A20B7B0158
:100420008C0120918C0230918D0240918E0250916E
:100430008F0280915B0385FF13C0E701C21BD30BC2
:10044000C630D10568F08DE094E060E071E00E9474
:10045000350B8DE094E0BE014AE050E00E94A70A0F
:10046000E0928C02F0928D0200938E0210938F0224
:100470008091900290919102A0919202B09193028A
:10048000A8019701281B390B4A0B5B0BDA01C90144
:10049000895E9340A040B04020F1E0929002F0923B
:1004A000910200939202109393028DE094E061E137
:1004B00071E00E94350B4091880250918902609151
:1004C0008A0270918B028DE094E02AE030E00E9475
:1004D000930A109288021092890210928A02109256
:1004E0008B028091880290918902A0918A02B0913A
:1004F0008B020196A11DB11D809388029093890201
:10050000A0938A02B0938B02DF91CF911F910F913C
:10051000FF90EF900895A4E9B2E020E030E01D9252
:100520001D92F901E15BFC4F80818D7F80832F5FFD
:100530003F4F2430310599F70895E82FF0E0EE0F92
:10054000FF1FEC56FD4F8081918108958EE00E943F
:100550001B0C909395028093940280914F038260CC
:1005600080934F038FE00E941B0C9093970280931F
:1005700096028091500382608093500308950895FD
:10058000ECE9F2E0E80FF11D808108958BE00E9414
:10059000D00C80939C028CE00E94D00C80939D0232
:1005A0008DE00E94D00C80939E0280915303826064
:1005B000809353038091540382608093540380910D
:1005C0005503826080935503089520E030E0F901DF
:1005D000E456FD4F1082F901ED5AFC4F80818D7F6A
:1005E00080832F5F3F4F2430310589F782E061E03F
:1005F0000E943D0C82E061E00E947C0C83E061E09F
:100600000E943D0C83E061E00E947C0C89E061E087
:100610000E943D0C89E060E00E947C0C0895DC01A2
:100620008091A002882329F481E08093A002809326
:10063000A1023091A7024091A1029091A6022091BF
:10064000E90280E018C0882311F49D9112C0903413
:1006500010F4292F0EC0E92FE054E03410F0292FB8
:1006600007C0F0E0E855FD4F8D9180833F5F9F5FAD
:1006700041E0615081E0662331F73093A702409357
:10068000A1029093A6022093E9020895EF92FF92AF
:100690000F931F93CF93DF938091A002882309F4D7
:1006A000DDC08DE061E00E947C0C8091A102882376
:1006B00069F00E94A20B6093A2027093A302809340
:1006C000A4029093A5021092A10225C00E94A20B41
:1006D0002091A2023091A3024091A4025091A50260
:1006E000621B730B840B950B6536710581059105B3
:1006F00090F08DE060E00E947C0C359908C08DE0A0
:1007000094E069E171E00E94380B0E94C7061092E4
:10071000A0021092A6028091A702882309F447C084
:100720008091A9028330F1F0843028F4813051F0B7
:100730008230D9F50FC0853029F18530D8F0863068
:10074000A1F529C08DE094E065E371E00E94380BCB
:1007500083E028C08DE094E065E571E00E94380BED
:1007600083E017C08DE094E06AE771E00E94380BE7
:1007700082E00FC08DE094E06BE971E00E94380BDD
:1007800082E010C08DE094E061EC71E00E94380BD3
:1007900089E061E008C08DE094E06CEC71E00E94BB
:1007A000380B89E060E00E947C0C1092A9020E9444
:1007B0007B06882309F452C09AEBE92E92E0F92EC9
:1007C00000E010E0E801C15BDC4F888181FF09C0D7
:1007D000802F0E949D02F7019183808388818D7F05
:1007E00088830F5F1F4F82E090E0E80EF91E04300F
:1007F000110541F782ECE82E82E0F82E00E010E0CF
:10080000E801CD5ADC4F888181FF08C0802F0E940B
:10081000C002F701808388818D7F88830F5F1F4F1F
:100820000894E11CF11C0430110551F7C0E0D0E040
:100830008E01095A1C4FF801808181FF0BC08C2F5B
:100840000E94F204FE01E855FD4F8287F801808185
:100850008D7F80832196C430D10551F780915B0351
:1008600081FF40C08091A702882389F08DE094E049
:1008700068ED71E00E94350B6091A7028DE094E075
:1008800070E04AE050E00E94160B1092A70280919F
:10089000E802882389F08DE094E06CED71E00E941D
:1008A000350B6091E8028DE094E070E04AE050E0A2
:1008B0000E94160B1092E8028091E9028823A1F0B1
:1008C0008DE094E060EE71E00E94350B6091E902EA
:1008D0008DE094E070E04AE050E00E94160B109228
:1008E000E90202C01092A702DF91CF911F910F91F0
:1008F000FF90EF9008958DE094E061EF71E00E9429
:10090000380B8DE094E06DEF71E00E94350B8DE0C7
:1009100061E00E943D0C88E50E94830684EC94E02F
:100920000E948C068FE093E00E9487060E94730667
:100930001092A7021092E8021092A6021092A20250
:100940001092A3021092A4021092A5021092A0028B
:100950001092A1021092E902E8EAF2E0119282E01C
:10096000E83EF807D9F71092EB021092EA021092D3
:10097000ED021092EC021092EF021092EE02109231
:10098000F1021092F00208958091A002882331F4C0
:100990008DE392E061E00E94AC0608958091A6028A
:1009A000803448F4883180F490E08A5C9D4F61E0A7
:1009B0000E94AC0609C08054803458F490E08855F9
:1009C0009D4F61E00E9491068091A6028F5F809307
:1009D000A60281E08093A1028091E8028F5F80935C
:1009E000E8020895EBE4F3E0E80FF11D808108953B
:1009F0000F931F9303E013E0C80165E045E028EC86
:100A000030E00E948D00C801429666E046E028EC86
:100A100030E00E948D00C801849667E047E028EC32
:100A200030E00E948D00C801C69668E048E028ECDE
:100A300030E00E948D001F910F9108951F93CF9376
:100A4000DF93CBE4D3E010E08DE094E0612F4AE047
:100A500050E00E94C40A8DE094E065E072E00E94DC
:100A6000350B8DE094E069914AE050E00E94C40AA1
:100A70008DE094E067E072E00E94350B1F5F143058
:100A800019F78DE094E00E94E409DF91CF911F9166
:100A900008950F931F938091020322E1829FC0016A
:100AA00011248D5F9C4F0E94060100910203882350
:100AB000E9F010E0F801EE0FFF1FCF0123E0880FEF
:100AC000991F2A95E1F7E80FF91FED5FFC4F608150
:100AD00071818281938129E330E040E050E00E94FF
:100AE000420D055B1C4FF801208306C0E02FF0E0AB
:100AF000E55BFC4F8FEF8083E0910203F0E0E95A61
:100B0000FC4F8081826080831F910F91089520E0C7
:100B100030E0F901E55BFC4F1082F901E95AFC4F26
:100B200080818D7F80832F5F3F4F2430310589F78F
:100B30000E94A20B655B7F4F8F4F9F4F6093F20225
:100B40007093F3028093F4029093F5026F5D7F4FF0
:100B50008F4F9F4F6093F6027093F7028093F802D5
:100B60009093F9026F5D7F4F8F4F9F4F6093FA0212
:100B70007093FB028093FC029093FD026F5D7F4FA8
:100B80008F4F9F4F6093FE027093FF02809300038C
:100B9000909301030895DF92EF92FF920F931F93BA
:100BA000CF93DF9302EF12E0C0E0D0E0DC2E0E9492
:100BB000A20BFC2EED2EF801208131814281538160
:100BC000621773078407950730F12C573F4F4F4F3B
:100BD0005F4F2083318342835383CC2331F4809150
:100BE0000203833011F40E941E050E94D700D092A8
:100BF00002038F2D9E2D880F991F9C0143E0220F29
:100C0000331F4A95E1F7820F931F8D5F9C4F69E474
:100C100075E00E94C60121960C5F1F4FC430D105BC
:100C200029F6DF91CF911F910F91FF90EF90DF9008
:100C30000895A8950E94A6020E94C6020E94CB05B4
:100C40000E94460380915B0382FF02C00E94BF02A4
:100C500080915B0384FF02C00E94070208950F93F6
:100C60001F9310925B030DE014E0C80140E052ECCA
:100C700061E070E00E943308C8016CE072E00E94FD
:100C8000380BC8016DE072E00E94350BC80160E2CC
:100C900072E00E94380B80915B0381608D7C8093B1
:100CA0005B030E947B0478941F910F9108952FE0BD
:100CB00088E190E00FB6F894A895809360000FBE8D
:100CC000209360000E942F060E94EE010E948B027A
:100CD0000E94E5020E9487058DE094E066E272E0E2
:100CE0000E94380B089510925C03449A459A85E45B
:100CF0008093BC00089580915C0390E0882309F400
:100D000091E0892F0895880F8093BA0008959093F9
:100D10006F0380936E03089590937303809372031F
:100D20000895482F613110F081E0089580915C03AF
:100D3000843011F082E0089560937103A4E7B3E07A
:100D4000842F9C01F90102C081918D938E2F841B09
:100D50008617D0F380E00895482F613110F081E0CC
:100D6000089580915C03843011F082E008956093CF
:100D70007103A4E7B3E0842F9C01F90102C08191C3
:100D80008D938E2F841B8617D0F380E0089585EC19
:100D90008093BC0010925C0308951F920F920FB6CF
:100DA0000F9211242F933F934F935F936F937F93F1
:100DB0008F939F93AF93BF93EF93FF938091B9006D
:100DC00090E0887F90708839910509F4A4C0893932
:100DD0009105ECF488379105D1F1893791055CF4E0
:100DE00088369105A1F18037910589F1803691050A
:100DF00009F097C02CC08838910509F48CC080395F
:100E0000910559F18038910509F08BC026C0883BC7
:100E1000910509F45DC0893B910564F4883A910518
:100E200009F441C0803B9105F1F1803A910509F048
:100E300078C025C0883C910509F471C0883F9105B0
:100E400009F476C0803C910509F06BC068C083E06E
:100E500080935C0310925D035CC080915D038031E0
:100E600008F059C080915D039091BB00E82FF0E03D
:100E7000E25AFC4F90838F5F80935D034AC080915C
:100E80005D03803130F4E0915D03F0E0E25AFC4F05
:100E9000108260915D03E0916E03F0916F038EE527
:100EA00093E009953CC084E080935C03109270034A
:100EB00010927103E0917203F09173030995809190
:100EC0007103882329F481E08093710310927403E5
:100ED00090917003E92FF0E0EC58FC4F80818093F3
:100EE000BB009F5F9093700390917003809171039A
:100EF000981748F01092700310927103E0917203FA
:100F0000F091730309959091700380917103981784
:100F100010F485EC01C085E88093BC0009C085EC25
:100F200003C01092840385ED8093BC0010925C0393
:100F3000FF91EF91BF91AF919F918F917F916F91B1
:100F40005F914F913F912F910F900FBE0F901F9087
:100F5000189508951F920F920FB60F9211242F9398
:100F60003F934F938F939F93EF93FF938091C00094
:100F700082FD1DC04091C6002091C5033091C6037B
:100F80002F5F3F4F2F7330708091C7039091C8033C
:100F90002817390771F0E091C503F091C603EB57AC
:100FA000FC4F40833093C6032093C50302C0809159
:100FB000C600FF91EF919F918F914F913F912F919B
:100FC0000F900FBE0F901F901895E0911904F091AB
:100FD0001A04E05CFF4F8191919120813181821B45
:100FE000930B8F739070892B11F00E94A9070895BD
:100FF0001F920F920FB60F9211242F933F938F934E
:101000009F93EF93FF932091090430910A048091FC
:101010000B0490910C042817390731F48091C1001A
:101020008F7D8093C10014C0E0910B04F0910C04FB
:10103000E753FC4F208180910B0490910C040196A2
:101040008F73907090930C0480930B042093C600D0
:10105000FF91EF919F918F913F912F910F900FBE34
:101060000F901F901895AF92BF92DF92EF92FF9270
:101070000F931F93CF93DF93EC017A018B01DD2453
:10108000403081EE580780E0680780E0780711F073
:10109000DD24D39491E0A92EB12CEC89FD89DD20CB
:1010A00069F0C50108A002C0880F991F0A94E2F7F1
:1010B000808360E079E08DE390E005C0108260E815
:1010C00074E88EE190E0A80197010E94420D215042
:1010D000304040405040569547953795279580E1E0
:1010E0002030380720F0DD2011F0DD24D6CFE8894C
:1010F000F9893083EA89FB89208319A2EE89FF8967
:10110000408121E030E0C9010C8C02C0880F991F9A
:101110000A94E2F7482B4083EE89FF894081C90198
:101120000D8C02C0880F991F0A94E2F7482B408368
:10113000EE89FF894081C9010E8C02C0880F991F7A
:101140000A94E2F7482B4083EE89FF8980810F8C57
:1011500002C0220F331F0A94E2F720952823208330
:10116000DF91CF911F910F91FF90EF90DF90BF9093
:10117000AF900895DC011C96ED91FC911D97E05C09
:10118000FF4F2191319180819181281B390B2F7361
:101190003070C9010895DC011C96ED91FC911D97FA
:1011A000E05CFF4F20813181E054F040DF01AE5B15
:1011B000BF4F8D919C9111972817390719F42FEF84
:1011C0003FEF07C08D919C91E80FF91F8081282F78
:1011D00030E0C9010895DC011C96ED91FC911D974A
:1011E000E05CFF4F20813181E054F040DF01AE5BD5
:1011F000BF4F8D919C9111972817390719F42FEF44
:101200003FEF10C08D919C911197E80FF91F20813D
:101210008D919C91119701968F73907011969C936C
:101220008E9330E0C9010895DC0191968C919197DD
:10123000882339F05496ED91FC915597808186FF73
:10124000F9CF91961C920895CF93DF93EC01EE8530
:10125000FF85E05CFF4F20813181E054F0402F5F3B
:101260003F4F2F733070DF01AE5BBF4F8D919C916C
:10127000119728173907D1F3E05CFF4F80819181E6
:10128000E054F040E80FF91F6083EE85FF85E05CD5
:10129000FF4F31832083EE89FF89208181E090E038
:1012A0000F8C02C0880F991F0A94E2F7282B208325
:1012B00081E089A3EC89FD8980818064808381E05D
:1012C00090E0DF91CF9108951092100410920F04D6
:1012D00088EE93E0A0E0B0E08093110490931204B4
:1012E000A0931304B09314048AE792E090930E0441
:1012F00080930D0485E893E090931A048093190479
:1013000089EC93E090931C0480931B0485EC90E09F
:1013100090931E0480931D0484EC90E0909320042D
:1013200080931F0480EC90E090932204809321042A
:1013300081EC90E0909324048093230482EC90E06D
:10134000909326048093250486EC90E090932804E3
:101350008093270484E08093290483E080932A0407
:1013600087E080932B0485E080932C0481E08093B8
:101370002D040895CF92DF92EF92FF920F931F9367
:10138000CF93DF937C016B018A01C0E0D0E00FC0F6
:10139000D6016D916D01D701ED91FC910190F08125
:1013A000E02DC7010995C80FD91F01501040011544
:1013B000110571F7CE01DF91CF911F910F91FF9031
:1013C000EF90DF90CF900895EF92FF920F931F93CD
:1013D0008C01DC01ED91FC910190F081E02D6DE03C
:1013E00009957C01D801ED91FC910190F081E02DEF
:1013F000C8016AE009959C012E0D3F1DC9011F918E
:101400000F91FF90EF900895CF93DF93EC0161155A
:10141000710519F420E030E00FC0DB010D900020D1
:10142000E9F71197A61BB70BE881F9810280F381D8
:10143000E02DAD0109959C01C901DF91CF9108957F
:101440004F925F927F928F929F92AF92BF92CF9274
:10145000DF92EF92FF920F931F93DF93CF93CDB75D
:10146000DEB7A1970FB6F894DEBF0FBECDBF2C013B
:10147000742ECB01223008F42AE019A231E2C32EE7
:10148000D12CCC0EDD1E822E9924AA24BB24672DDC
:10149000752FA50194010E94420D79018A01C801AE
:1014A000B701A50194010E94230D472D461B089406
:1014B000C108D1084A3014F4405D01C0495CF6010E
:1014C0004083E114F1040105110521F07E2C5F2D0C
:1014D000C801DDCFC201B6010E94040AA1960FB671
:1014E000F894DEBF0FBECDBFCF91DF911F910F915A
:1014F000FF90EF90DF90CF90BF90AF909F908F9034
:101500007F905F904F900895DC012115310541F4E3
:10151000ED91FC910190F081E02D642F09950895E3
:101520000E94200A0895EF92FF920F931F937C016F
:101530000E94840A8C01C7010E94E4099C01200FCB
:10154000311FC9011F910F91FF90EF900895CF9225
:10155000DF92EF92FF920F931F936C017B019A0130
:1015600000E010E0B801A7010E94840A8C01C601C6
:101570000E94E409080F191FC8011F910F91FF90E5
:10158000EF90DF90CF900895EF92FF920F931F930B
:101590009A01E62EFF2400E010E0B801A7010E94A6
:1015A000840A1F910F91FF90EF900895CF92DF92E0
:1015B000EF92FF920F931F93CF93DF93EC016A0199
:1015C0007B012115310541F4E881F9810190F08119
:1015D000E02D642F09951FC02A303105D1F477FF23
:1015E00017C0E881F9810190F081E02D6DE2099545
:1015F0008C0144275527BA014C195D096E097F09F2
:10160000CE012AE00E94200A9801280F391F04C049
:101610002AE00E94200A9C01C901DF91CF911F910D
:101620000F91FF90EF90DF90CF900895CF92DF92CF
:10163000EF92FF920F931F936C017B019A01002799
:10164000F7FC0095102FB801A7010E94D60A8C0163
:10165000C6010E94E409080F191FC8011F910F91CC
:10166000FF90EF90DF90CF9008950E94040A0895B4
:10167000EF92FF920F931F937C010E94040A8C014A
:10168000C7010E94E409080F191FC8011F910F919B
:10169000FF90EF900895CF93DF930E94E00B0E949C
:1016A0005706C5EED7E00E9419062097E1F30E9485
:1016B000E507F9CF1F920F920FB60F9211242F93C7
:1016C0003F938F939F93AF93BF93809133049091F7
:1016D0003404A0913504B09136043091370401965A
:1016E000A11DB11D232F2D5F2D3720F02D57019601
:1016F000A11DB11D209337048093330490933404CB
:10170000A0933504B093360480912F049091300457
:10171000A0913104B09132040196A11DB11D8093B6
:101720002F0490933004A0933104B0933204BF91FE
:10173000AF919F918F913F912F910F900FBE0F907E
:101740001F9018958FB7F89420913304309134048A
:1017500040913504509136048FBFB901CA010895F4
:101760009FB7F89420912F043091300440913104B8
:101770005091320486B5A89B06C08F3F21F02F5FA1
:101780003F4F4F4F5F4F9FBF542F432F322F222782
:10179000280F311D411D511D82E0220F331F441FB0
:1017A000551F8A95D1F7B901CA010895019739F0FB
:1017B000880F991F880F991F02970197F1F70895D5
:1017C000789484B5826084BD84B5816084BD85B51C
:1017D000826085BD85B5816085BDEEE6F0E08081E3
:1017E00081608083E1E8F0E0108280818260808304
:1017F000808181608083E0E8F0E080818160808387
:10180000E1EBF0E0808184608083E0EBF0E08081B8
:1018100081608083EAE7F0E080818460808380815A
:101820008260808380818160808380818068808302
:101830001092C1000895982F8E3008F09E50977036
:10184000809135028295880F880F807C892B809348
:101850007C0080917A00806480937A0080917A0085
:1018600086FDFCCF2091780040917900942F80E094
:1018700030E0282B392BC9010895CF93DF93482FEF
:1018800050E0CA0186569F4FFC0134914A575F4F82
:10189000FA018491882369F190E0880F991FFC0177
:1018A000E859FF4FA591B491FC01EE58FF4FC59147
:1018B000D491662351F42FB7F8948C91932F90957F
:1018C00089238C93888189230BC0623061F42FB700
:1018D000F8948C91932F909589238C938881832BF6
:1018E00088832FBF06C09FB7F8948C91832B8C936D
:1018F0009FBFDF91CF910895482F50E0CA018255D4
:101900009F4FFC012491CA0186569F4FFC01949180
:101910004A575F4FFA013491332309F440C0222320
:1019200051F1233071F0243028F42130A1F022301D
:1019300011F514C02630B1F02730C1F02430D9F4AD
:1019400004C0809180008F7703C0809180008F7DDC
:101950008093800010C084B58F7702C084B58F7DDE
:1019600084BD09C08091B0008F7703C08091B00022
:101970008F7D8093B000E32FF0E0EE0FFF1FEE5855
:10198000FF4FA591B4912FB7F894662321F48C9161
:101990009095892302C08C91892B8C932FBF089539
:1019A000682F70E0CB0182559F4FFC012491CB0141
:1019B00086569F4FFC0144916A577F4FFB019491DB
:1019C000992319F420E030E03CC0222351F1233068
:1019D00071F0243028F42130A1F0223011F514C028
:1019E0002630B1F02730C1F02430D9F404C0809102
:1019F00080008F7703C0809180008F7D809380006E
:101A000010C084B58F7702C084B58F7D84BD09C0B6
:101A10008091B0008F7703C08091B0008F7D80935C
:101A2000B000892F90E0880F991F84589F4FFC01C8
:101A3000A591B4918C9120E030E0842311F021E055
:101A400030E0C9010895629FD001739FF001829F29
:101A5000E00DF11D649FE00DF11D929FF00D839F3D
:101A6000F00D749FF00D659FF00D9927729FB00DDA
:101A7000E11DF91F639FB00DE11DF91FBD01CF01ED
:101A800011240895A1E21A2EAA1BBB1BFD010DC053
:101A9000AA1FBB1FEE1FFF1FA217B307E407F5071E
:101AA00020F0A21BB30BE40BF50B661F771F881FFA
:101AB000991F1A9469F760957095809590959B0190
:101AC000AC01BD01CF010895EE0FFF1F0590F49109
:081AD000E02D0994F894FFCF0A
:101AD800457865637574696F6E20286D53293A20BF
:101AE800004C6F6F70733A20002A2A2A2A2A205243
:101AF800656C656173652049324320427573202AFD
:101B08002A2A2A2A00436170616369746F727320FC
:101B1800636F6E6E656374656420746F20636861BB
:101B28007267657200436170616369746F727320D4
:101B3800646973636F6E6E65637465642066726F43
:101B48006D206368617267657200436170616369E3
:101B5800746F727320636F6E6E656374656420744E
:101B68006F20736F6C656E6F6964004361706163A9
:101B780069746F727320646973636F6E6E656374E2
:101B880065642066726F6D20736F6C656E6F696433
:101B98000043686172676572206F6E004368617206
:101BA800676572206F6666005278200052712000C7
:101BB800496C6C6567616C2041646472657373205D
:101BC80000496E69745F4E5854494943004F666630
:101BD80073657420003D00636D202000004172642D
:101BE80075696E6F204E585420536F636365720099
:101BF80056322E303500536574757020636F6D70E2
:101C08006C657465000156312E3030000000546850
:101C1800696E6B44495941726475534F4300000023
:101C280000000000000000000000000000000000AC
:101C3800000000000000000000000000000000009C
:101C4800000000000000000000002409BA09BA08DA
:061C5800EB08CB081409A3
:00000001FF
