:100000000C9463000C948B000C948B000C948B006C
:100010000C948B000C948B000C948B000C94A70414
:100020000C948B000C948B000C948B000C948B0024
:100030000C948B000C948B000C948B000C948B0014
:100040000C94F90A0C948B000C9449070C949707B4
:100050000C948B000C948B000C948B000C948B00F4
:100060000C946C060C948B00000000002400270008
:100070002A0000000000250028002B0000000000DE
:1000800023002600290004040404040404040202DA
:100090000202020203030303030301020408102007
:1000A0004080010204081020010204081020000012
:1000B0000007000201000003040600000000000029
:1000C00000004B03030911241FBECFEFD8E0DEBFB1
:1000D000CDBF11E0A0E0B1E0E6E1FAE102C0059099
:1000E0000D92AC3FB107D9F713E0ACEFB1E001C01E
:1000F0001D92A839B107E1F710E0C6ECD0E004C0CA
:100100002297FE010E94050DC23CD107C9F70E944B
:10011000EA0A0C94090D0C9400001092000210924F
:100120000102109202021092030210920402109235
:10013000050210920602109207021092FC01109222
:10014000FD011092FE011092FF010895EF92FF92BF
:100150000F931F93CF93DF930E94410B7B018C0180
:10016000209100023091010240910202509103025D
:100170008091BB0285FF13C0E701C21BD30BC630C1
:10018000D10568F08DE693E060E071E00E94D40A4A
:100190008DE693E0BE014AE050E00E94460AE092FC
:1001A0000002F09201020093020210930302809178
:1001B000040290910502A0910602B0910702A801E5
:1001C0009701281B390B4A0B5B0BDA01C901895EC9
:1001D0009340A040B04020F1E0920402F09205026A
:1001E00000930602109307028DE693E061E171E04F
:1001F0000E94D40A4091FC015091FD016091FE01E2
:100200007091FF018DE693E02AE030E00E94320A0F
:100210001092FC011092FD011092FE011092FF015C
:100220008091FC019091FD01A091FE01B091FF0130
:100230000196A11DB11D8093FC019093FD01A09337
:10024000FE01B093FF01DF91CF911F910F91FF90BD
:10025000EF900895A8E0B2E020E030E01D921D92FA
:10026000F901E055FD4F80818D7F80832F5F3F4FE7
:100270002430310599F70895E82FF0E0EE0FFF1FC5
:10028000E85FFD4F8081918108958EE00E94BA0B56
:1002900090930902809308028091B002826080935B
:1002A000B0028FE00E94BA0B90930B0280930A0277
:1002B0008091B10282608093B1020895089520E098
:1002C00030E0F901E05FFD4F1082F901EC54FD4F81
:1002D00080818D7F80832F5F3F4F2430310589F7E8
:1002E0000895E0E1F2E0E80FF11D808108958BE0D0
:1002F0000E946F0C809310028CE00E946F0C809320
:1003000011028DE00E946F0C809312028091B40262
:1003100082608093B4028091B50282608093B502BE
:100320008091B60282608093B6020895DC018091CC
:100330001402882329F481E080931402809315022B
:1003400030911B024091150290911A0220915D029A
:1003500080E018C0882311F49D9112C0903410F4ED
:10036000292F0EC0E92FE054E03410F0292F07C0E8
:10037000F0E0E45EFD4F8D9180833F5F9F5F41E041
:10038000615081E0662331F730931B0240931502E0
:1003900090931A0220935D020895EF92FF920F93BB
:1003A0001F93CF93DF9380911402882309F4A9C08F
:1003B0008DE061E00E941B0C80911502882369F09A
:1003C0000E94410B609316027093170280931802EB
:1003D000909319021092150225C00E94410B2091A2
:1003E0001602309117024091180250911902621BB7
:1003F000730B840B950B653671058105910590F0A3
:100400008DE060E00E941B0C359908C08DE693E0FA
:1004100069E171E00E94D70A0E94660610921402F8
:1004200010921A0280911B028823A1F080911D0274
:10043000813019F0823061F405C08DE693E065E308
:1004400071E004C08DE693E061E471E00E94D70A98
:1004500010921D020E941A06882309F452C09EE2DF
:10046000E92E92E0F92E00E010E0E801C055DD4FE2
:10047000888181FF09C0802F0E943C01F701918390
:10048000808388818D7F88830F5F1F4F82E090E09B
:10049000E80EF91E0430110541F786E3E82E82E0EC
:1004A000F82E00E010E0E801CC54DD4F888181FF98
:1004B00008C0802F0E947101F701808388818D7FA1
:1004C00088830F5F1F4F0894E11CF11C0430110555
:1004D00051F7C0E0D0E08E0108541D4FF801808133
:1004E00081FF0BC08C2F0E944503FE01E45EFD4F8F
:1004F0008287F80180818D7F80832196C330D1056A
:1005000051F78091BB0281FF40C080911B0288237C
:1005100089F08DE693E06EE471E00E94D40A609168
:100520001B028DE693E070E04AE050E00E94B50ABD
:1005300010921B0280915C02882389F08DE693E083
:1005400062E571E00E94D40A60915C028DE693E05E
:1005500070E04AE050E00E94B50A10925C0280917F
:100560005D028823A1F08DE693E066E571E00E94CC
:10057000D40A60915D028DE693E070E04AE050E0BD
:100580000E94B50A10925D0202C010921B02DF9118
:10059000CF911F910F91FF90EF9008958DE693E01A
:1005A00067E671E00E94D70A8DE693E063E771E0A9
:1005B0000E94D40A8DE061E00E94DC0B88E50E9475
:1005C000220687E193E00E942B0686E991E00E94D3
:1005D00026060E94120610921B0210925C021092D4
:1005E0001A0210921602109217021092180210921C
:1005F0001902109214021092150210925D02ECE1A1
:10060000F2E0119282E0EC35F807D9F710925F0220
:1006100010925E02109261021092600210926302C8
:100620001092620210926502109264020895809105
:100630001402882331F483EB91E061E00E944B06C1
:10064000089580911A02803448F4883180F490E053
:1006500084559E4F61E00E944B0609C0805480344F
:1006600058F490E0845E9D4F61E00E9430068091D6
:100670001A028F5F80931A0281E0809315028091A5
:100680005C028F5F80935C020895E9EAF2E0E80F74
:10069000F11D808108950F931F9303E712E0C801B5
:1006A00062E043E028EC30E00E945704C801429623
:1006B00064E045E028EC30E00E945704C8018496CD
:1006C00067E048E028EC30E00E9457041F910F914A
:1006D00008951F93CF93DF93C9EAD2E010E08DE62F
:1006E00093E0612F4AE050E00E94630A8DE693E0B8
:1006F0006BE771E00E94D40A8DE693E069914AE0CD
:1007000050E00E94630A8DE693E06DE771E00E947D
:10071000D40A1F5F133019F78DE693E00E94830916
:10072000DF91CF911F9108958091720222E1829F03
:10073000C00111248D589D4F0E94D004882319F4C4
:100740002FEF30E019C0E0917202F0E0EE0FFF1FD2
:10075000CF0123E0880F991F2A95E1F7E80FF91FD1
:10076000ED58FD4F608171818281938129E330E0F2
:1007700040E050E00E94E10CE0917202F0E0DF0105
:10078000A755BD4F2C93E854FD4F80818260808334
:1007900008951092A9028091B8028D7F8093B802CB
:1007A0001092AA028091B9028D7F8093B9021092B3
:1007B000AB028091BA028D7F8093BA021092AD0293
:1007C0001092AC020E94410B655B7F4F8F4F9F4F91
:1007D0006093660270936702809368029093690247
:1007E0006F5D7F4F8F4F9F4F60936A0270936B02D4
:1007F00080936C0290936D026F5D7F4F8F4F9F4F80
:1008000060936E0270936F028093700290937102F6
:100810000895DF92EF92FF920F931F93CF93DF9390
:1008200006E612E0C0E0D0E0DC2E0E94410BFC2E78
:10083000ED2EF801208131814281538162177307C7
:100840008407950730F12D593F4F4F4F5F4F20835D
:10085000318342835383CC2331F4809172028230FE
:1008600011F40E9469030E94A104D09272028F2D9C
:100870009E2D880F991F9C0143E0220F331F4A953C
:10088000E1F7820F931F8D589D4F64E973E00E943A
:10089000900521960C5F1F4FC330D10529F6DF91DB
:1008A000CF911F910F91FF90EF90DF900895CF931C
:1008B000DF93EC01862F90E0FC01E656FF4FE491B8
:1008C000EC83A42FB0E0FD01E656FF4FE491ED83E9
:1008D0008A579F4FFC01449150E0440F551FFA0185
:1008E000EE58FF4F859194919F838E83AA57BF4FF7
:1008F000FD018491E82FF0E0EE0FFF1FE458FF4F59
:10090000859194919B878A87FA01E859FF4F8591D9
:10091000949199878887F1E0253F3F0714F024EFF1
:1009200031E089E390E0AC01249FC001259F900D48
:10093000349F900D11244C969D878C87DF91CF9129
:100940000895E0E7F0E080818D7F808308951F9215
:100950000F920FB60F9211242F933F934F935F93F3
:100960006F937F938F939F93AF93BF93EF93FF9377
:10097000E091AE02F091AF02309709F00995FF9136
:10098000EF91BF91AF919F918F917F916F915F9107
:100990004F913F912F910F900FBE0F901F90189580
:1009A000EF92FF920F931F93CF93DF93EC010E947E
:1009B0004F0B2E853F8548895989261737074807E9
:1009C000590730F4809170008D7F809370000AC0C9
:1009D000EA85FB85208130E08D8190E02823392352
:1009E000232B11F080E020C0809170008D7F8093D8
:1009F00070000E944F0B2C853D8540E050E0EE8456
:100A0000FF84088919892E193F09400B510B2D507D
:100A1000304040405040260F371F481F591F288341
:100A200039834A835B8381E0DF91CF911F910F91DE
:100A3000FF90EF900895CF93DF93EC01E885F9855F
:100A400080819C81892B8083EE81FF8190818C81C4
:100A500080958923808384E090E00E94750BEE816D
:100A6000FF8180819C81892B80838AE090E00E94B5
:100A7000750BEE81FF8190818C8180958923808325
:100A8000E885F98590818C818095892380830E94F7
:100A90004F0B605B794B8F4F9F4F6E877F87888BA3
:100AA000998BEA85FB85208130E08D8190E02823B9
:100AB0003923232BC9F00E944F0B2E853F8548898F
:100AC0005989261737074807590770F0EACF0E945F
:100AD0004F0B2E853F8548895989261737074807C8
:100AE000590710F480E019C0EA85FB85208130E0C9
:100AF0008D8190E028233923232B49F30E944F0B4B
:100B00002C853D8540E050E0260F371F481F591FB8
:100B10002E873F87488B598B81E0DF91CF910895D5
:100B2000CF93DF93EB010E941B058823F1F08091A6
:100B300070008D7F809370008091B6008F7D8093D0
:100B4000B60082E08093B00084E08093B100109200
:100B5000B200D093AF02C093AE0285E08093B300A1
:100B600080917000826080937000DF91CF91089532
:100B7000A8950E9445010E9477010E9409040E94E5
:100B8000CD018091BB0282FF02C00E945E01809174
:100B9000BB0284FF02C00E94A60008950F931F931A
:100BA0001092BB020DE613E0C80140E052EC61E098
:100BB00070E00E94D207C80161E871E00E94D70A84
:100BC000C80162E871E00E94D40AC80165E971E0D9
:100BD0000E94D70A8091BB0281608D7C8093BB020A
:100BE0000E94CE0278941F910F9108952FE088E122
:100BF00090E00FB6F894A895809360000FBE209304
:100C000060000E94CE050E948D000E942A010E9471
:100C10005F010E94C9038DE693E06CE971E00E94D8
:100C2000D70A08951092BC02449A459A85E48093AD
:100C3000BC0008958091BC0290E0882309F491E003
:100C4000892F0895880F8093BA0008959093CF025A
:100C50008093CE0208959093D3028093D202089598
:100C6000482F613110F081E008958091BC028430FA
:100C700011F082E008956093D102A4EDB2E0842FD8
:100C80009C01F90102C081918D938E2F841B8617E0
:100C9000D0F380E00895482F613110F081E008958D
:100CA0008091BC02843011F082E008956093D102FB
:100CB000A4EDB2E0842F9C01F90102C081918D93D3
:100CC0008E2F841B8617D0F380E0089585EC8093E7
:100CD000BC001092BC0208951F920F920FB60F92A3
:100CE00011242F933F934F935F936F937F938F9331
:100CF0009F93AF93BF93EF93FF938091B90090E0E0
:100D0000887F90708839910509F4A4C089399105CC
:100D1000ECF488379105D1F1893791055CF4883678
:100D20009105A1F18037910589F18036910509F08F
:100D300097C02CC08838910509F48CC08039910582
:100D400059F18038910509F08BC026C0883B910588
:100D500009F45DC0893B910564F4883A910509F472
:100D600041C0803B9105F1F1803A910509F078C0CE
:100D700025C0883C910509F471C0883F910509F4AC
:100D800076C0803C910509F06BC068C083E0809319
:100D9000BC021092BD025CC08091BD02803108F09F
:100DA00059C08091BD029091BB00E82FF0E0E25461
:100DB000FD4F90838F5F8093BD024AC08091BD023A
:100DC000803130F4E091BD02F0E0E254FD4F10823A
:100DD0006091BD02E091CE02F091CF028EEB92E0E5
:100DE00009953CC084E08093BC021092D00210921E
:100DF000D102E091D202F091D30209958091D10203
:100E0000882329F481E08093D1021092D40290913A
:100E1000D002E92FF0E0EC52FD4F80818093BB00BF
:100E20009F5F9093D0029091D0028091D102981749
:100E300048F01092D0021092D102E091D202F091CB
:100E4000D30209959091D0028091D102981710F4A5
:100E500085EC01C085E88093BC0009C085EC03C027
:100E60001092E40285ED8093BC001092BC02FF91C9
:100E7000EF91BF91AF919F918F917F916F915F9112
:100E80004F913F912F910F900FBE0F901F9018958B
:100E900008951F920F920FB60F9211242F933F9334
:100EA0004F938F939F93EF93FF938091C00082FDA8
:100EB0001DC04091C60020912503309126032F5F6D
:100EC0003F4F2F733070809127039091280328178C
:100ED000390771F0E0912503F0912603EB51FD4FA6
:100EE0004083309326032093250302C08091C600DF
:100EF000FF91EF919F918F914F913F912F910F9083
:100F00000FBE0F901F901895E0917903F0917A032E
:100F1000E05CFF4F8191919120813181821B930B85
:100F20008F739070892B11F00E94480708951F92CB
:100F30000F920FB60F9211242F933F938F939F938D
:100F4000EF93FF932091690330916A0380916B03C3
:100F500090916C032817390731F48091C1008F7D7F
:100F60008093C10014C0E0916B03F0916C03E75DC6
:100F7000FC4F208180916B0390916C0301968F73DD
:100F8000907090936C0380936B032093C600FF9145
:100F9000EF919F918F913F912F910F900FBE0F90E6
:100FA0001F901895AF92BF92DF92EF92FF920F932E
:100FB0001F93CF93DF93EC017A018B01DD24403046
:100FC00081EE580780E0680780E0780711F0DD24A3
:100FD000D39491E0A92EB12CEC89FD89DD2069F034
:100FE000C50108A002C0880F991F0A94E2F7808308
:100FF00060E079E08DE390E005C0108260E874E87D
:101000008EE190E0A80197010E94E10C2150304050
:1010100040405040569547953795279580E12030C0
:10102000380720F0DD2011F0DD24D6CFE889F989DA
:101030003083EA89FB89208319A2EE89FF894081E8
:1010400021E030E0C9010C8C02C0880F991F0A947E
:10105000E2F7482B4083EE89FF894081C9010D8C5E
:1010600002C0880F991F0A94E2F7482B4083EE894B
:10107000FF894081C9010E8C02C0880F991F0A9414
:10108000E2F7482B4083EE89FF8980810F8C02C0F4
:10109000220F331F0A94E2F7209528232083DF9143
:1010A000CF911F910F91FF90EF90DF90BF90AF9085
:1010B0000895DC011C96ED91FC911D97E05CFF4FBB
:1010C0002191319180819181281B390B2F733070D0
:1010D000C9010895DC011C96ED91FC911D97E05C1F
:1010E000FF4F20813181E054F040DF01AE5BBF4F04
:1010F0008D919C9111972817390719F42FEF3FEF25
:1011000007C08D919C91E80FF91F8081282F30E056
:10111000C9010895DC011C96ED91FC911D97E05CDE
:10112000FF4F20813181E054F040DF01AE5BBF4FC3
:101130008D919C9111972817390719F42FEF3FEFE4
:1011400010C08D919C911197E80FF91F20818D910E
:101150009C91119701968F73907011969C938E932A
:1011600030E0C9010895DC0191968C919197882314
:1011700039F05496ED91FC915597808186FFF9CF17
:1011800091961C920895CF93DF93EC01EE85FF8535
:10119000E05CFF4F20813181E054F0402F5F3F4FF2
:1011A0002F733070DF01AE5BBF4F8D919C91119713
:1011B00028173907D1F3E05CFF4F80819181E0541B
:1011C000F040E80FF91F6083EE85FF85E05CFF4F7C
:1011D00031832083EE89FF89208181E090E00F8CAC
:1011E00002C0880F991F0A94E2F7282B208381E020
:1011F00089A3EC89FD8980818064808381E090E00F
:10120000DF91CF9108951092700310926F0388EED2
:1012100093E0A0E0B0E08093710390937203A093F9
:101220007303B093740380EF91E090936E03809307
:101230006D0385EE92E090937A038093790389E2BF
:1012400093E090937C0380937B0385EC90E09093F4
:101250007E0380937D0384EC90E0909380038093E1
:101260007F0380EC90E0909382038093810381EC74
:1012700090E0909384038093830382EC90E09093BA
:1012800086038093850386EC90E090938803809397
:10129000870384E08093890383E080938A0387E057
:1012A00080938B0385E080938C0381E080938D0392
:1012B0000895CF92DF92EF92FF920F931F93CF93F7
:1012C000DF937C016B018A01C0E0D0E00FC0D60142
:1012D0006D916D01D701ED91FC910190F081E02DB0
:1012E000C7010995C80FD91F0150104001151105FC
:1012F00071F7CE01DF91CF911F910F91FF90EF9089
:10130000DF90CF900895EF92FF920F931F938C017F
:10131000DC01ED91FC910190F081E02D6DE00995EB
:101320007C01D801ED91FC910190F081E02DC80184
:101330006AE009959C012E0D3F1DC9011F910F9177
:10134000FF90EF900895CF93DF93EC016115710545
:1013500019F420E030E00FC0DB010D900020E9F728
:101360001197A61BB70BE881F9810280F381E02D6C
:10137000AD0109959C01C901DF91CF9108954F926C
:101380005F927F928F929F92AF92BF92CF92DF92A5
:10139000EF92FF920F931F93DF93CF93CDB7DEB7FA
:1013A000A1970FB6F894DEBF0FBECDBF2C01742EEF
:1013B000CB01223008F42AE019A231E2C32ED12C4D
:1013C000CC0EDD1E822E9924AA24BB24672D752FF6
:1013D000A50194010E94E10C79018A01C801B701BD
:1013E000A50194010E94C20C472D461B0894C10818
:1013F000D1084A3014F4405D01C0495CF6014083D5
:10140000E114F1040105110521F07E2C5F2DC801C6
:10141000DDCFC201B6010E94A309A1960FB6F894D0
:10142000DEBF0FBECDBFCF91DF911F910F91FF9017
:10143000EF90DF90CF90BF90AF909F908F907F9074
:101440005F904F900895DC012115310541F4ED9135
:10145000FC910190F081E02D642F099508950E9480
:10146000BF090895EF92FF920F931F937C010E9492
:10147000230A8C01C7010E9483099C01200F311FA0
:10148000C9011F910F91FF90EF900895CF92DF92C5
:10149000EF92FF920F931F936C017B019A0100E082
:1014A00010E0B801A7010E94230A8C01C6010E9426
:1014B0008309080F191FC8011F910F91FF90EF902A
:1014C000DF90CF900895EF92FF920F931F939A01B0
:1014D000E62EFF2400E010E0B801A7010E94230AD5
:1014E0001F910F91FF90EF900895CF92DF92EF92AE
:1014F000FF920F931F93CF93DF93EC016A017B015F
:101500002115310541F4E881F9810190F081E02D48
:10151000642F09951FC02A303105D1F477FF17C019
:10152000E881F9810190F081E02D6DE209958C014F
:1015300044275527BA014C195D096E097F09CE0170
:101540002AE00E94BF099801280F391F04C02AE031
:101550000E94BF099C01C901DF91CF911F910F919A
:10156000FF90EF90DF90CF900895CF92DF92EF92AF
:10157000FF920F931F936C017B019A010027F7FCE8
:101580000095102FB801A7010E94750A8C01C601B1
:101590000E948309080F191FC8011F910F91FF9026
:1015A000EF90DF90CF9008950E94A3090895EF92E5
:1015B000FF920F931F937C010E94A3098C01C70126
:1015C0000E948309080F191FC8011F910F91FF90F6
:1015D000EF900895CF93DF930E947F0B0E94F60552
:1015E000C4E8D7E00E94B8052097E1F30E94840781
:1015F000F9CF1F920F920FB60F9211242F933F93A2
:101600008F939F93AF93BF93809193039091940393
:10161000A0919503B0919603309197030196A11D77
:10162000B11D232F2D5F2D3720F02D570196A11DC1
:10163000B11D209397038093930390939403A093F9
:101640009503B093960380918F0390919003A0919E
:101650009103B09192030196A11DB11D80938F0358
:1016600090939003A0939103B0939203BF91AF9195
:101670009F918F913F912F910F900FBE0F901F90D0
:1016800018958FB7F894209193033091940340916B
:101690009503509196038FBFB901CA0108959FB772
:1016A000F89420918F0330919003409191035091D1
:1016B000920386B5A89B06C08F3F21F02F5F3F4F56
:1016C0004F4F5F4F9FBF542F432F322F2227280F9A
:1016D000311D411D511D82E0220F331F441F551F34
:1016E0008A95D1F7B901CA010895019739F0880F99
:1016F000991F880F991F02970197F1F70895789421
:1017000084B5826084BD84B5816084BD85B5826006
:1017100085BD85B5816085BDEEE6F0E080818160A4
:101720008083E1E8F0E010828081826080838081A4
:1017300081608083E0E8F0E0808181608083E1EB7C
:10174000F0E0808184608083E0EBF0E08081816064
:101750008083EAE7F0E0808184608083808182601A
:101760008083808181608083808180688083109203
:10177000C1000895982F8E3008F09E509770809188
:10178000AB018295880F880F807C892B80937C0029
:1017900080917A00806480937A0080917A0086FD3F
:1017A000FCCF2091780040917900942F80E030E0C8
:1017B000282B392BC9010895CF93DF93482F50E090
:1017C000CA0186569F4FFC0134914A575F4FFA0178
:1017D0008491882369F190E0880F991FFC01E859F2
:1017E000FF4FA591B491FC01EE58FF4FC591D491E4
:1017F000662351F42FB7F8948C91932F90958923F9
:101800008C93888189230BC0623061F42FB7F894E0
:101810008C91932F909589238C938881832B888337
:101820002FBF06C09FB7F8948C91832B8C939FBFDA
:10183000DF91CF910895482F50E0CA0182559F4F04
:10184000FC012491CA0186569F4FFC0194914A578E
:101850005F4FFA013491332309F440C0222351F140
:10186000233071F0243028F42130A1F0223011F51A
:1018700014C02630B1F02730C1F02430D9F404C0B0
:10188000809180008F7703C0809180008F7D80934E
:10189000800010C084B58F7702C084B58F7D84BD71
:1018A00009C08091B0008F7703C08091B0008F7D18
:1018B0008093B000E32FF0E0EE0FFF1FEE58FF4FD4
:1018C000A591B4912FB7F894662321F48C9190954B
:1018D000892302C08C91892B8C932FBF0895682F88
:1018E00070E0CB0182559F4FFC012491CB018656BD
:1018F0009F4FFC0144916A577F4FFB0194919923BC
:1019000019F420E030E03CC0222351F1233071F083
:10191000243028F42130A1F0223011F514C02630F3
:10192000B1F02730C1F02430D9F404C08091800098
:101930008F7703C0809180008F7D8093800010C0DE
:1019400084B58F7702C084B58F7D84BD09C0809136
:10195000B0008F7703C08091B0008F7D8093B0007E
:10196000892F90E0880F991F84589F4FFC01A59103
:10197000B4918C9120E030E0842311F021E030E03C
:10198000C9010895629FD001739FF001829FE00D0D
:10199000F11D649FE00DF11D929FF00D839FF00DEE
:1019A000749FF00D659FF00D9927729FB00DE11D9A
:1019B000F91F639FB00DE11DF91FBD01CF01112477
:1019C0000895A1E21A2EAA1BBB1BFD010DC0AA1F80
:1019D000BB1FEE1FFF1FA217B307E407F50720F098
:1019E000A21BB30BE40BF50B661F771F881F991F13
:1019F0001A9469F760957095809590959B01AC015C
:101A0000BD01CF010895EE0FFF1F0590F491E02D69
:061A10000994F894FFCFD9
:101A1600457865637574696F6E20286D53293A2081
:101A2600004C6F6F70733A20002A2A2A2A2A205205
:101A3600656C656173652049324320427573202ABF
:101A46002A2A2A2A0044524942424C4552204F4EE5
:101A56000044524942424C4552204F464600527875
:101A6600200052712000496C6C6567616C204164EE
:101A760064726573732000496E69745F4E585449E9
:101A86004943004F666673657420003D00636D2010
:101A9600000041726475696E6F204E585420536F72
:101AA600636365720056322E303452005365747586
:101AB6007020636F6D706C657465000156312E3051
:101AC600300000005468696E6B4449594172647570
:101AD600534F43000000000000000000000000001B
:101AE60000000000000000000000000000000000F0
:101AF60000000000000000000000000000000000E0
:0C1B0600C308590959088A086A08B30886
:00000001FF
